:10000000831203138501860107309F0083160313B3
:1000100006308600F0308500831203138C30A20076
:10002000A401A30108308500B120B1200000000028
:100030000000000000000000000000000430850007
:10004000B120B120A30A14302302031D1228A203F9
:1000500035302202031D1128A30108308500B1208C
:10006000B1200000000000000000000000000000BF
:10007000000004308500B120B120A30A143023020F
:10008000031D2D28A20A8C302202031D2C28A40A4D
:1000900002302402031D1128A401A30108308500A9
:1000A000B120B12004308500B120B120A203353049
:1000B0002202031D4D28A30108308500B120B12084
:1000C00004308500B120B120A20A8B302202031D2A
:1000D0005B28A40A10302402031D4D28A401A101AD
:1000E0006430A200A30108308500B120B1200000D7
:1000F00000000000000000000000000000000430CC
:100100008500B120B120A30AFF302302031D73280C
:10011000A10A02302102031D7228A1017830A20039
:10012000A30108308500B120B120000000000000CC
:100130000000000000000000000004308500B12035
:10014000B120A30AD6302302031D9128A10A023050
:100150002102031D9028A40A04302402031D6F28E5
:0C0160000E282208A000A00BB328080005
:020FFE000028C9
:02400E00181E7A
:00000001FF
