:020000040000FA
:1000000083168111032883120313A401A501A601FD
:10001000A701AE01AF01B001B2018501F030831636
:100020008500073083129F00860106308316860004
:10003000831286176630B2008312031304308500E2
:1000400056202F08133A031D4328AF0130140830FF
:10005000850056203208273A031D4528AF0130108D
:10006000831203130430850056202F08133A031D12
:100070004E28AF0130140830850056203208663A09
:10008000031D50281C28AF0A2728301C1C283010BC
:100090003208031DB20332081C281C28AF0A3B2873
:1000A000301C30283010B20A302830288312031355
:1000B000AE012E083206031D5E286128AE0A5928BB
:0800C0005E28831203130800FF
:02400E00103F61
:10420000FF00FF00FF00FF00FF00FF00FF00FF00B6
:10421000FF00FF00FF00FF00FF00FF00FF00FF00A6
:10422000FF00FF00FF00FF00FF00FF00FF00FF0096
:10423000FF00FF00FF00FF00FF00FF00FF00FF0086
:10424000FF00FF00FF00FF00FF00FF00FF00FF0076
:10425000FF00FF00FF00FF00FF00FF00FF00FF0066
:10426000FF00FF00FF00FF00FF00FF00FF00FF0056
:10427000FF00FF00FF00FF00FF00FF00FF00FF0046
:10428000FF00FF00FF00FF00FF00FF00FF00FF0036
:10429000FF00FF00FF00FF00FF00FF00FF00FF0026
:1042A000FF00FF00FF00FF00FF00FF00FF00FF0016
:1042B000FF00FF00FF00FF00FF00FF00FF00FF0006
:1042C000FF00FF00FF00FF00FF00FF00FF00FF00F6
:1042D000FF00FF00FF00FF00FF00FF00FF00FF00E6
:1042E000FF00FF00FF00FF00FF00FF00FF00FF00D6
:1042F000FF00FF00FF00FF00FF00FF00FF00FF00C6
:00000001FF
