:02000000FE2FD1
:100F5600F0308316031385000630860007308312AF
:100F660003139F00850180308600F101F2010430F1
:100F7600831203138500B830F000F00BC02FC32F87
:100F86000830831203138500B830F000F00BC92F28
:100F9600CC2F0130F1070318F20A0030F2070230B5
:100FA6007202823003197102031CDA2FDB2FBA2F6B
:100FB600F301F4010430831203138500E930F000D5
:100FC600F00BE32F0830831203138500E930F0009D
:100FD600F00BEB2F0130F3070318F40A0030F40787
:100FE60002307402013003197302031CFB2FFC2F1D
:0A0FF600DD2FB82F00288301AB2F78
:02400E00181E7A
:00000001FF
